:02000000632D6E
:10000600063083120313FD00FD0B072800000800CD
:06001600000000000800DC
:0A001C000320061603200612080058
:100026008312031306118611B83083163704831220
:0600360088000E20080006
:10003C007F30831603133705F0007008B700831266
:10004C0006118611BF30F00570088316B7007017C3
:0E005C007008B7007008831288000E2008009C
:10006A007F30831603133705F1007108B700711F3B
:10007A004228831206148610452883120610861415
:02008A0008006C
:10008C00FF308316031388000B200B2083120615F8
:10009C00061286150616032008088316B70083126D
:1000AC00061286110B200B20831688013708F000EE
:0200BC0008003A
:1000BE008312031306120615861183163708831250
:0600CE0088000E2008006E
:1000D40083120313F801F9011030FC00710DF80DBF
:1000E400F90D7408F8027508031C750FF90203185A
:1000F40082287408F80775080318750FF9070310A8
:0A010400F00DF10DFC0B702808004F
:10010E0083120313FB01FA01F9018030F800F10CA0
:10011E00F00C031C9B287408F90775080318750F5B
:10012E00FA070318FB0A0310F01FA3287408FA0736
:10013E0075080318750FFB07FB0CFA0CF90CF80C7D
:10014E00031C8E287B08F3007A08F2007908F10070
:06015E007808F000080023
:0E0164008312031349088A004808820008002D
:100172000030831603133102031CCC2831087F3C64
:10018200031CCC2800303202031CCC2832083F3C2E
:10019200031CCC28CD281F293108B700352083162F
:1001A2003208B700B70CB713B70CB713B70CB713B5
:1001B200132083163108B7001E2046207008B600AF
:1001C20046207008B6003208B700B70CB713B70C58
:1001D200B713B70CB713132083163108B7001E20CC
:1001E200073083163205F0007008B4007008F10081
:1001F2000130F000710803190229F00D7010FF3E62
:10020200FC287008B4007009B50010293508B6053D
:100212001C293408B6041C293408B6061C293308E4
:10022200003A031907293308013A03190A29330846
:0E023200023A03190D293608B7005F200800B4
:1002400083160313B00120302602031C2C29260834
:100250005A3C031C2C292E293F30A60020302602B0
:10026000F000F101031CF1030530F4000030F5004B
:10027000872070088316AB007108AC00AF01A9019C
:10028000AA0180302A06F00080307002031D4A293E
:10029000053029020318AD290130AF00A701A801DC
:1002A00080302806F00080307002031D5929073085
:1002B00027020318A92929082B07F0002C08031886
:1002C000013E2A07F1006630F00706300318013EB0
:1002D000F10770088312C8007108C900B2208A11A2
:1002E0000A12F00083162F08F00503197A2901304D
:1002F000F0007B29F0017008AD000030AD1BFF302D
:10030000AE00AF0D2F1029082407F10025080318AF
:10031000013E2A07F2008030F00080307206700241
:10032000031D942971083E3C031898290130B00040
:1003300029082407B1003008B10727082207B200B6
:100340002D08B300B92083160313A70A0319A80ABE
:0C0350005029A90A0319AA0A4129080033
:10035C0083160313A501053025020318BC292508B3
:10036C002407840020308000A50AB1292508240721
:10037C0084008001A50325082407A6000A30F40098
:10038C00F5012208F0002308F1006A207808F0003B
:10039C007908F1003030F0078316260884007008C5
:1003AC0080000A30F400F5012208F0002308F10067
:1003BC006A2070088316A2007108A3000030710631
:1003CC00031DEA2900307006031DED29EF29A50352
:0403DC00C12908002B
:1003E00083120313EE01EF016E086D07840000080D
:1003F0000319232A69088316A20083126A08831648
:10040000A30083126E08F0006F08F1000630F400BC
:100410000030F500872070086B078316A400831254
:100420006C080318013E71078316A50083126E083D
:100430006D07840000088316A60020218312EE0AAF
:080440000319EF0AF42908007A
:1004480083120313EE01EF0169088316A0008312DB
:100458006A088316A100803083126A06F000803093
:100468007002031D392A0030690203184A2A013034
:10047800EE000030EF006908003C8316A0008312EC
:100488006A08031C013E8316A101A10283162008F5
:10049800A2002108A30083126B088316A400AE21D2
:1004A80006308312EC000030ED006D08003C031D9F
:1004B8005F2A6C08003C03187A2A6C086B07F20064
:1004C80001306C02F0000030031C013E6D02F100A7
:1004D80070086B0784000008F00072088400700838
:1004E80080000130EC02031CED03592A6B088400DC
:1004F800203080006E086F040319982AEC01ED0182
:100508006C086B0784000008203A031D8F2AEC0A48
:100518000319ED0A842A0130EC02031CED036C0870
:0A0528006B0784002D3080000800EE
:100532000E3083120313FD00FD0B9D2A00000800FC
:100542000030831203136B02031CAC2A6B083F3C7E
:10055200031CAC2AAD2AE12A003069020318B22A30
:10056200E90169087F3C0318B82A7F30E9000030AE
:100572006A020318BD2AEA016A087F3C0318C32AEB
:100582007F30EA0069086A020318CD2A6908ED0083
:100592006A08E9006D08EA0069086A02031CE12A98
:1005A20069088316B10083126B088316B2008312A6
:1005B2006C088316B300B92083120313E90ACD2A0B
:0205C20008002F
:1005C400831203136008E9006108EA006230EB005B
:1005D40024225F08E900EA015E08EB00EC016230C6
:0605E400ED00F02108000B
:1005EA00043083120313F0006008E6006108E70094
:1005FA0070080319072BE70CE60CE713671BE717CC
:10060A00FF3EFE2AE401043064020318182B5E0838
:10061A00E9006608EA0064085F07EB000130EC00B5
:10062A00A122E40A082BE501043065020318282BED
:10063A006608E9004030EA0065085F07EB00EC0154
:08064A00A122E50A192B0800AA
:100652000030831203136002031C342B60087F3CBA
:10066200031C342B352B692B00305E0203183A2B06
:10067200DE015E083F3C0318402B3F30DE000030B5
:100682005F020318452BDF015F083F3C03184B2B29
:100692003F30DF005E085F020318552B5E08E20060
:1006A2005F08DE006208DF005E085F02031C692B40
:1006B20060088316B10083125E088316B2008312AB
:1006C20061088316B300B92083120313DE0A552B87
:0206D20008001E
:1006D400831203139F01C0309F0483161F179F17B3
:1006E40083125E08F000F00D7010F00D7010F00D24
:1006F400701070089F041F1499221F151F1D842B4E
:100704000000802B1F101E08F100F00183161E0844
:08071400F0040030F1040800BC
:10071C00831603178C1C942B00008E2B831203134F
:10072C005E0803178D0003135F0803178C008316F4
:10073C008C130C150B08F0008B1355308D00AA3060
:10074C008D008C14F01BAC2B8B13AD2B8B170C1159
:02075C00080093
:10075E00831203135E0803178D0083168C130C147B
:08076E0083120C08F0000800E2
:1007760083120313DD0140305D0203181F2C033082
:10078600DE006A2370088312D5007108D6005D0862
:10079600003A031DD22B5508D7005608D8008030E2
:1007A6005A06F000803056067002031DDC2B5508F1
:1007B60059020318E22B5508D9005608DA00803092
:1007C6005606F000803058067002031DEC2B5708C1
:1007D60055020318F22B5508D7005608D8005508BD
:1007E600DB0756080318013EDC072030DE00053023
:1007F600F2005508F0005608F100720803190A2C99
:10080600F10CF00CF113711BF117FF3E012C70086F
:10081600203CDF005D083F3EE0000130E100292377
:100826008230FC00DD30FD00FD0B172CFC0B172C75
:1008360000000000DD0ABE2B1A30DE00DF0157087B
:10084600E0005808E100E2221A30DE000A30DF003C
:100856005908E0005A08E100E2221A30DE0014309E
:10086600DF000630F2005B08F0005C08F100720859
:100876000319422CF10CF00CF113FF3E3B2C7008CF
:10088600DB007108DC007008E0007108E100E2227C
:02089600080058
:100898000430831203138700033083168700831202
:1008A800071C5A2C0130F2000030F300871C602C22
:1008B8000430F2000030F30008308700071C682C71
:1008C8000230F2000030F300871C6E2C0530F20075
:0E08D8000030F3007208F0007308F100080011
:1008E600831203135508DE00FF305605DF008E2302
:1008F6000D30FC00FB30FD00FD0B7F2CFC0B7F2C2C
:100906000000000083120313550ADE005708F000AA
:100916000030D71BFF30F100FF307005DF008E235B
:100926000D30FC00FB30FD00FD0B972CFC0B972CCB
:06093600000000000800B3
:10093C000030831203135606031DA62C00305506F7
:10094C00031DAF2C1A30DE002530DF00E001E10181
:10095C00E22256085806031DB52C570855060319F4
:10096C00EA2CFF305606031DBD2CFF305506031D27
:10097C00D52C2530E9000030EA002630EB000030A1
:10098C00EC002D30ED00F021DE012E30DF00E00117
:10099C00E1015708E2005808E300F522EA2C1A306E
:1009AC00DE002530DF005508E0005608E100E222A9
:1009BC00DE012E30DF005508E0005608E100570834
:0A09CC00E2005808E300F5220800DD
:1009D60083120313D501643055020318FC2C1F3013
:1009E600DE00DF0155081E3EE000E1012923D50A9D
:1009F600EE2CDE012030DF003E30E0000130E10069
:040A06002923080098
:100A0A00831203135508DE00AF2370080313D600C0
:100A1A00D7010D30FC00FB30FD00FD0B122DFC0B45
:100A2A00122D00000000550ADE00AF2370080313E0
:100A3A00D800D901FF305605F3005708F4000030FA
:100A4A00F4055808F100F0010030F005FF30F10517
:0E0A5A007308F00774080318013EF107080046
:100A680083120313C7018316861206120611861114
:100A780006108610831286128316880183120611C7
:100A880086110610861486163F3088000E20C03066
:100A980088000E20061486103F3088000E20C030D3
:060AA80088000E2008008A
:100AAE00B2208A110A128000840AC80A0319C90AE0
:080ABE00F003031D572D080091
:100AC600B42783120313D101D201D3010130D4001C
:100AD60034253930E9000030EA004330EB000030BD
:100AE600EC003230ED00F0213330E9000030EA004E
:100AF6000130EB000030EC004230ED00F0212530F3
:100B0600E9000030EA000130EB000030EC003D3037
:100B1600ED00F021E901EA010130EB000030EC00C4
:100B26002430ED00F0210A30E9000030EA000130FF
:100B3600EB000030EC002030ED00F0211430E9002D
:100B46000030EA000130EB000030EC002830ED0008
:100B5600F0213E30E9007E30EA002030EB00013023
:100B6600EC00A122DE012030DF003E30E000013043
:100B7600E100292383169F0183125308D50005251A
:100B86007008CD007108CE007008D5007108D60037
:100B96004F08D7005008D8009E240330DE006A2391
:100BA60070088312CA007108CB001A30DE00333099
:100BB600DF007008E0007108E100E2224A08D10077
:100BC6004B08D2004D08CF004E08D0000330DE009F
:100BD6006A2370088312CA007108CB004C2470087F
:100BE600CC007008013A031D052E5308D5004A08AB
:100BF600D6004B08D7007324831203134A08CD008E
:100C06004B08CE004C08023A031D232E5308003A27
:100C1600031D102E1030D3001C2E5308103A031D4E
:100C2600172E2030D3001C2E5308203A031D1C2EED
:100C3600D3015308D50005257008CD007108CE00F4
:100C46004C08043A031D2D2E5408013A031D2D2E7F
:100C5600D401BB234C08053A031D382E5408003A2C
:100C6600031D382E0130D400EB24CC014B0852066C
:100C7600031D3F2E51084A060319562E1A30DE0070
:100C86003330DF004A08E0004B08E100E222DE01D3
:100C96003B30DF004A08E0004B08E1005108E20063
:100CA6005208E300F5224D08D5004E08D6004F083D
:0C0CB600D7005008D8009E24E12D602ECD
:100F680020308400273083120313F0008D30C8002E
:080F78000730C90057250800ED
:100CCC0000340034003400340034003400344F3429
:100CDC000034003400340734003407340034143446
:100CEC007F3414347F34143424342A347F342A343B
:100CFC0012342334133408346434623436344934B3
:100D0C005534223420340034053403340034003498
:100D1C0000341C3422344134003400344134223445
:100D2C001C340034143408343E340834143408347D
:100D3C0008343E3408340834503430340034003431
:100D4C00003408340834083408340834003460346F
:100D5C006034003400342034103408340434023449
:100D6C003E345134493445343E34003442347F34BB
:100D7C0040340034423461345134493446342134E3
:100D8C00413445344B3431341834143412347F34F8
:100D9C001034273445344534453439343C344A34E2
:100DAC004934493430340134713409340534033452
:100DBC0036344934493449343634063449344934A8
:100DCC0029341E34003436343634003400340034C4
:100DDC00563436340034003408341434223441345C
:100DEC0000341434143414341434143400344134B2
:100DFC0022341434083402340134513409340634A6
:100E0C003E3441345D3455341E347E341134113447
:100E1C0011347E347F3449344934493436343E34C9
:100E2C0041344134413422347F344134413422340E
:100E3C001C347F3449344934493441347F340934C7
:100E4C000934093401343E344134493449347A3458
:100E5C007F340834083408347F34003441347F3410
:100E6C00413400342034403441343F3401347F3435
:100E7C0008341434223441347F3440344034403408
:100E8C0040347F3402340C3402347F347F340434E5
:100E9C00083410347F343E344134413441343E34D0
:100EAC007F3409340934093406343E344134513426
:100EBC0021345E347F3409341934293446342634D1
:100ECC004934493449343234013401347F340134E7
:100EDC0001343F344034403440343F341F342034E8
:100EEC00403420341F343F344034383440343F34A1
:100EFC0063341434083414346334073408347034D1
:0E0F0C000834073461345134493445344334D9
:080F1A004D3441345834003419
:080F22004D3449344E34003413
:0A0F2A004D34453441344E34003498
:0A0F34003F343F343F343F340034B3
:100F3E0048342E3453342E34423420345634313423
:060F4E002E3430340034A3
:0A0F540052344F344D343A34003467
:0A0F5E0041344E3433343A34003489
:02400E000A2F77
:00000001FF
